:100000000C942A000C9447000C9447000C94470071
:100010000C9447000C9447000C9447000C94470044
:100020000C9447000C9447000C9447000C94470034
:100030000C9447000C9447000C9447000C94470024
:100040000C9447000C9447000C9447000C94470014
:100050000C94470011241FBECFE5D8E0DEBFCDBF12
:1000600010E0A0E6B0E0ECE0FFE002C005900D92E9
:10007000AC3CB107D9F720E0ACECB0E001C01D9278
:10008000AE3CB207E1F70E948D020C9484070C94F9
:10009000000081B3807F81BB81B3806F81BB82B35D
:1000A0008FEF82BB0895E0E0F0E0AAC082B3806FDA
:1000B00082BB22B3DF01AA0FBB1FA05ABF4F81E052
:1000C00090E00C9002C0880F991F0A94E2F7809587
:1000D000822382BB60E070E08EC080B3DB01AA0F98
:1000E000BB1FA859BF4F4C9121E030E0042E02C045
:1000F000220F331F0A94E2F790E082239323042E09
:1001000002C0959587950A94E2F7892B09F071C092
:1001100080B390E082239323042E02C095958795A7
:100120000A94E2F7892BA1F3E130F10511F11CF4F7
:10013000309749F05EC0E230F10589F1E330F10516
:1001400009F442C056C06130710509F45FC024F45F
:100150006115710541F04DC06230710531F06330B9
:10016000710529F046C087E3089581E3089583E48B
:1001700008956130710509F44BC024F461157105CF
:1001800041F037C06230710531F06330710529F0FC
:1001900030C088E3089582E3089580E308956130D4
:1001A0007105C1F124F46115710541F022C062307E
:1001B000710531F06330710529F01BC089E30895A2
:1001C00083E308958DE308956130710529F124F4E6
:1001D0006115710541F00DC06230710531F0633079
:1001E000710529F006C08FE208958DE208958BE233
:1001F00008956F5F7F4F643071050CF46ECF3196B8
:10020000E430F1050CF452CF81E4089584E30895BD
:1002100085E3089586E308958AE2089588B38860A7
:1002200088BB000000008FE19EE40197F1F700C059
:10023000000088B3877F88BB08958AB31ABA88B351
:10024000846088BB88B38D7F88BB0E940E018AB30F
:100250008FEF8ABB88B38B7F88BB0895CF93C82F5D
:100260000E941D018AB38FEF8ABBCBBB88B3897F05
:1002700088BB0E940E01CF9108958130910549F409
:10028000862F972F4097A8F480E8860F0E942E01B2
:100290000895029771F4862F972F409750F480ECC1
:1002A000860F0E942E0180E190E09093CD00809314
:1002B000CC00089581E00E942E0180E80E942E016A
:1002C0001092CD001092CC0008958FE493EC01972A
:1002D000F1F700C000000E941D0187B38E6087BB4C
:1002E00088B3817F88BB8AB38FEF8ABB0E945A0193
:1002F00088E30E942E0186E00E942E0180E80E9481
:100300002E018FE00E942E010895CF93C82F0E94E6
:100310001D018AB38FEF8ABB8091CC009091CD00F4
:100320008031910539F460E070E082E090E00E9455
:100330003D0108C0809731F40E945A011092CD000F
:100340001092CC00CBBB8091CC009091CD00019657
:100350009093CD008093CC0088B3826088BB88B333
:100360008B7F88BB0E940E01CF910895EF92FF9280
:100370000F931F93CF93DF93EC0100E010E021C0B7
:100380000031110539F460E070E082E090E00E94F5
:100390003D010DC00032110551F40E945A0160E088
:1003A00070E081E090E00E943D0100E010E07E01FD
:1003B0008FEFE81AF80A88810E9485010F5F1F4FAE
:1003C000E70188818111DCCFDF91CF911F910F91DF
:1003D000FF90EF9008950F931F93CF93DF93CDB7C6
:1003E000DEB7A0970FB6F894DEBF0FBECDBF9F93C8
:1003F0008F9387E790E09F938F938E010F5F1F4F3E
:100400001F930F930E949A04C8010E94B6010F9097
:100410000F900F900F900F900F90A0960FB6F8943A
:10042000DEBF0FBECDBFDF91CF911F910F91089519
:100430008F929F92AF92BF92CF92DF92EF92FF92F4
:100440000F931F93CF93DF93CDB7DEB7A0970FB66F
:10045000F894DEBF0FBECDBF6B017C0120E030E021
:10046000A9010E94400388231CF400E710E002C0A9
:1004700009E910E020E030E0A901C701B6010E94BF
:100480004003882324F4F7FAF094F7F8F094C701B6
:10049000B6010E9445034B015C01072E000C880B3E
:1004A000990B0E947D039B01AC01C701B6010E941C
:1004B000D30220E030E44CE156E40E942D040E9477
:1004C00045037F936F939F928F921F930F9382E7C1
:1004D00090E09F938F938E010F5F1F4F1F930F9399
:1004E0000E949A04C8010E94B6010FB6F894DEBFBC
:1004F0000FBECDBFA0960FB6F894DEBF0FBECDBF26
:10050000DF91CF911F910F91FF90EF90DF90CF90EF
:10051000BF90AF909F908F9008950E9465010E94B8
:1005200049008AE790E00E94B60160E070E082E056
:1005300090E00E943D018AE890E00E94B6010E948E
:100540005A018AE990E00E94B60160E070E082E022
:1005500090E00E943D0182ED94E00E94EB010E9438
:100560005A018BEA90E00E94B60160E070E082E000
:1005700090E00E943D0161E77DE382E692E40E9403
:1005800018020E945A0189EB90E00E94B6010E9475
:1005900053008134E1F3833419F40E945A01F7CFF8
:1005A0000E948501F4CF5058BB27AA270E94EB0276
:1005B0000C94F3030E94E50338F00E94EC0320F052
:1005C00039F49F3F19F426F40C94E2030EF4E095FD
:1005D000E7FB0C94DC03E92F0E94040458F3BA17DC
:1005E000620773078407950720F079F4A6F50C9449
:1005F00026040EF4E0950B2EBA2FA02D0B01B901A5
:1006000090010C01CA01A0011124FF27591B99F088
:10061000593F50F4503E68F11A16F040A22F232F94
:10062000342F4427585FF3CF469537952795A795E4
:10063000F0405395C9F77EF41F16BA0B620B730B8B
:10064000840BBAF09150A1F0FF0FBB1F661F771FFC
:10065000881FC2F70EC0BA0F621F731F841F48F4B1
:10066000879577956795B795F7959E3F08F0B0CF3A
:100670009395880F08F09927EE0F97958795089521
:100680000E94B80308F481E008950E944C03689426
:10069000B1110C94270408950E940C0488F09F5710
:1006A00098F0B92F9927B751B0F0E1F0660F771F96
:1006B000881F991F1AF0BA95C9F714C0B13091F08C
:1006C0000E942604B1E008950C942604672F782F29
:1006D0008827B85F39F0B93FCCF386957795679551
:1006E000B395D9F73EF490958095709561957F4FBD
:1006F0008F4F9F4F0895E89409C097FB3EF4909563
:100700008095709561957F4F8F4F9F4F9923A9F0EA
:10071000F92F96E9BB279395F69587957795679579
:10072000B795F111F8CFFAF4BB0F11F460FF1BC0BD
:100730006F5F7F4F8F4F9F4F16C0882311F096E950
:1007400011C0772321F09EE8872F762F05C06623FE
:1007500071F096E8862F70E060E02AF09A95660FB7
:10076000771F881FDAF7880F9695879597F9089570
:10077000990F0008550FAA0BE0E8FEEF16161706B2
:10078000E807F907C0F012161306E407F50798F01A
:10079000621B730B840B950B39F40A2661F0232B33
:1007A000242B252B21F408950A2609F4A140A695AF
:1007B0008FEF811D811D089597F99F6780E870E094
:1007C00060E008959FEF80EC089500240A941616C7
:1007D000170618060906089500240A94121613062F
:1007E000140605060895092E0394000C11F48823BD
:1007F00052F0BB0F40F4BF2B11F460FF04C06F5FD9
:100800007F4F8F4F9F4F089557FD9058440F551FAE
:1008100059F05F3F71F04795880F97FB991F61F082
:100820009F3F79F087950895121613061406551FF9
:10083000F2CF4695F1DF08C0161617061806991F65
:10084000F1CF86957105610508940895E894BB275A
:1008500066277727CB0197F908950E9440040C94EE
:10086000F3030E94E50338F00E94EC0320F0952387
:1008700011F00C94DC030C94E20311240C94270473
:100880000E94040470F3959FC1F3950F50E0551F2B
:10089000629FF001729FBB27F00DB11D639FAA27D5
:1008A000F00DB11DAA1F649F6627B00DA11D661F24
:1008B000829F2227B00DA11D621F739FB00DA11D45
:1008C000621F839FA00D611D221F749F3327A00DFF
:1008D000611D231F849F600D211D822F762F6A2F9B
:1008E00011249F5750409AF0F1F088234AF0EE0F00
:1008F000FF1FBB1F661F771F881F91505040A9F72D
:100900009E3F510580F00C94DC030C9427045F3F5C
:10091000E4F3983ED4F3869577956795B795F79568
:10092000E7959F5FC1F7FE2B880F911D96958795E0
:1009300097F90895AEE0B0E0E0EAF4E00C945B07CC
:100940000D891E8986E08C831A8309838FEF9FE7C8
:100950009E838D83AE01475E5F4F6F89788DCE0198
:1009600001960E94BC04EF81F885E00FF11F108210
:100970002E96E4E00C947707ABE0B0E0E2ECF4E014
:100980000C944D076C017B018A01FC0117821682D1
:10099000838181FFCCC1CE0101963C01F601938198
:1009A000F70193FD859193FF81917F01882309F4DD
:1009B000BAC1853239F493FD859193FF81917F010E
:1009C000853229F4B60190E00E94B306E7CF912C5E
:1009D000212C312CFFE1F315D8F08B3279F038F46B
:1009E000803279F08332A1F4232D20611DC08D3235
:1009F00061F0803369F4232D216016C0832D82605D
:100A0000382EE32DE4603E2E2AC0F32DF8601DC081
:100A100037FC2DC020ED280F2A3040F08E32B9F47B
:100A200036FC81C1232D2064322E19C036FE06C04B
:100A30008AE0989E200D1124922E11C0EAE02E9E8D
:100A4000200D1124222EF32DF0623F2E08C08C368B
:100A500021F4832D8068382E02C0883641F4F701D6
:100A600093FD859193FF81917F018111B3CF982FE1
:100A70009F7D9554933028F40C5F1F4F9FE399831B
:100A80000DC0833631F0833771F0833509F059C0DA
:100A900021C0F801808189830E5F1F4F88248394D1
:100AA000912C530113C02801F2E04F0E511CF801A4
:100AB000A080B18036FE03C0692D70E002C06FEFE8
:100AC0007FEFC5010E94A8064C018201F32DFF773C
:100AD0003F2E16C0280122E0420E511CF801A080D2
:100AE000B18036FE03C0692D70E002C06FEF7FEF6A
:100AF000C5010E949D064C01F32DF0683F2E820136
:100B000033FC1BC0822D90E088169906B0F4B60124
:100B100080E290E00E94B3062A94F4CFF50137FCFE
:100B2000859137FE81915F01B60190E00E94B30686
:100B300021102A9421E0821A91088114910471F7FE
:100B4000E8C0843611F0893641F5F80137FE07C058
:100B500060817181828193810C5F1F4F08C0608129
:100B60007181072E000C880B990B0E5F1F4FF32D20
:100B7000FF763F2E97FF09C09095809570956195FF
:100B80007F4F8F4F9F4FF0683F2E2AE030E0A30148
:100B90000E94EF06882E861845C0853731F4232D34
:100BA0002F7EB22E2AE030E025C0932D997FB92EFA
:100BB0008F36C1F018F4883579F0B5C0803719F058
:100BC000883721F0B0C0E92FE061BE2EB4FE0DC021
:100BD000FB2DF460BF2E09C034FE0AC0292F266009
:100BE000B22E06C028E030E005C020E130E002C0AF
:100BF00020E132E0F801B7FE07C060817181828197
:100C000093810C5F1F4F06C06081718180E090E08E
:100C10000E5F1F4FA3010E94EF06882E8618FB2D42
:100C2000FF773F2E36FE0DC0232D2E7FA22E891476
:100C300058F434FE0BC032FC09C0832D8E7EA82EE2
:100C400005C0B82CA32C03C0B82C01C0B92CA4FE3D
:100C50000FC0FE01E80DF11D8081803321F49A2D33
:100C6000997EA92E09C0A2FE06C0B394B39404C015
:100C70008A2D867809F0B394A3FC11C0A0FE06C0AB
:100C8000B21488F4280C922C9B180EC0B21460F495
:100C9000B60180E290E00E94B306B394F7CFB2149D
:100CA00018F42B1802C0982C212CA4FE10C0B601F9
:100CB00080E390E00E94B306A2FE17C0A1FC03C02F
:100CC00088E790E002C088E590E0B6010CC08A2D6C
:100CD000867859F0A1FE02C08BE201C080E2A7FC39
:100CE0008DE2B60190E00E94B306891438F4B60193
:100CF00080E390E00E94B3069A94F7CF8A94F301C0
:100D0000E80DF11D8081B60190E00E94B3068110CC
:100D1000F5CF222009F442CEB60180E290E00E9495
:100D2000B3062A94F6CFF6018681978102C08FEF31
:100D30009FEF2B96E2E10C946907FC01059061504E
:100D400070400110D8F7809590958E0F9F1F0895E1
:100D5000FC016150704001900110D8F7809590958A
:100D60008E0F9F1F08950F931F93CF93DF93FB0167
:100D7000238121FD03C08FEF9FEF2CC022FF16C0FF
:100D800046815781248135814217530744F4A0815D
:100D9000B1819D012F5F3F4F318320838C9326814A
:100DA00037812F5F3F4F3783268314C08B01EC01BF
:100DB000FB010084F185E02D0995892BE1F6D8012E
:100DC00016968D919C911797019617969C938E93EA
:100DD0001697CE01DF91CF911F910F910895FA01DF
:100DE000AA27283051F1203181F1E8946F936E7F6A
:100DF0006E5F7F4F8F4F9F4FAF4FB1E03ED0B4E05B
:100E00003CD0670F781F891F9A1FA11D680F791F9B
:100E10008A1F911DA11D6A0F711D811D911DA11DAC
:100E200020D009F468943F912AE0269F11243019BC
:100E3000305D3193DEF6CF010895462F4770405D57
:100E40004193B3E00FD0C9F7F6CF462F4F70405D06
:100E50004A3318F0495D31FD4052419302D0A9F761
:100E6000EACFB4E0A6959795879577956795BA955B
:100E7000C9F700976105710508959B01AC010A2E21
:100E800006945795479537952795BA95C9F7620FF8
:100E9000731F841F951FA01D08952F923F924F929C
:100EA0005F926F927F928F929F92AF92BF92CF92FA
:100EB000DF92EF92FF920F931F93CF93DF93CDB703
:100EC000DEB7CA1BDB0B0FB6F894DEBF0FBECDBF7B
:100ED00009942A88398848885F846E847D848C844C
:100EE0009B84AA84B984C884DF80EE80FD800C8155
:100EF0001B81AA81B981CE0FD11D0FB6F894DEBF38
:0C0F00000FBECDBFED010895F894FFCFA7
:100F0C0004000500060007000000010002000300B9
:100F1C002D00257325642E2564004F73616D6120AF
:100F2C00596F7573736566203A004C6561726E205B
:100F3C00496E2044657074682000446563696D6176
:100F4C006C204E756D626572203A005265616C20A2
:100F5C004E756D626572203A00692F702066726F53
:0C0F6C006D204B6579706164203A000034
:00000001FF
